:100C66003F065B4F666D7D077F6F777C395E7971D6
:030BDB00014000D6
:10046D008E3D8F3EC2907C007D0A12039C74662DDA
:10047D00F582740C3CF583E493F580D290D295D23D
:10048D0096D2977F027E00120AF2AE3DAF3E7C00FF
:10049D007D0A12039CEF4E7003020571C2907C0021
:1004AD007D0A12039C74662DF582740C3CF583E471
:1004BD0093F580D290D295D296C2977F027E00128C
:1004CD000AF2AE3DAF3E7C007D6412039CEF4E7090
:1004DD0003020571C2907C007D0A12039C74662D87
:1004ED00F582740C3CF583E493F580D290D295C2DD
:1004FD0096D2977F027E00120AF2AE3DAF3E7C038C
:10050D007DE812039CEF4E605BC2907C007D0A1269
:10051D00039C74662DF582740C3CF583E493F58091
:10052D00D290D295C296C2977F027E00120AF2AE89
:10053D003DAF3E7C277D1012039CEF4E6026C2908E
:10054D007C007D0A12039C74662DF582740C3CF5BB
:10055D0083E493F580D290C295D296D2977F027E96
:05056D0000120AF22259
:100BC000D2922092137F0A7E00120AF220920630FF
:0B0BD00092FD7F01227F00227F0022A7
:10070D00E4F53FF5407580F0AF80EF64F0607C7FDD
:10071D000A7E00120AF2AF80EF64F06025AF80EF21
:10072D002450601124E0601224F0601324707012C4
:10073D00E4F53F800D753F048008753F0880037513
:10074D003F0C75800FAF80EF640F6022AF80EF24F8
:10075D00F5600B24FE600B14600E24078010053F1E
:10076D00800C053F053F80067403253FF53FC3E52B
:10077D0040940A748094805012AF80EF640F600B28
:0D078D007F0A7E00120AF2054080E3AF3FB4
:01079A00223C
:100BDE000126000127000230000002320000022C24
:060BEE000000022E0000D1
:100AF200E4FDFCC3ED9FEE6480F8EC648098501531
:100B0200E4FBFA0BBB00010AEB64734A70F50DBDFE
:050B120000010C80DE73
:010B170022BB
:100572008E3D8F3EE58954037044AC3DAD3EEC1296
:1005820002C9E4FBFA794078411202277BCD7ACC8A
:10059200792C784612011EA804A905AA06AB07E425
:1005A200FFFEFD7C46120029120302AB07AA067C5D
:1005B200007D201203F18F287C007D20804BE5898D
:1005C20054036401704EAC3DAD3EEC1202C9E4FB33
:1005D200FA794078411202277BCD7ACC792C784681
:1005E20012011EA804A905AA06AB07E4FFFE7D803E
:1005F2007C47120029120302AB07AA067C017D0088
:100602001203F18F287C017D00AF03AE021203F1C9
:100612008D2A800EE58954036402701175280675CF
:100622002A0685288C852A8AD2A9D28C22E5895469
:100632000364037015752806752A0685288C852A99
:0C0642008AD2A9D2ABD28CD28E2280FECC
:10064E008E398F3AE58954307044AC39AD3AEC129C
:10065E0002C9E4FBFA794078411202277BCD7ACCAD
:10066E00792C784612011EA804A905AA06AB07E448
:10067E00FFFEFD7C46120029120302AB07AA067C80
:10068E00007D201203F18F297C007D20804BE589AF
:10069E0054306410704EAC39AD3AEC1202C9E4FB22
:1006AE00FA794078411202277BCD7ACC792C7846A4
:1006BE0012011EA804A905AA06AB07E4FFFE7D8061
:1006CE007C47120029120302AB07AA067C017D00AB
:1006DE001203F18F297C017D00AF03AE021203F1EC
:1006EE008D2B800EE58954306420701175290675A6
:0F06FE002B0685298D852B8BD2ABD28E2280FEC9
:03000B0002096285
:10096200C0E0E589540364016006E5895403700A16
:1009720085288C852A8A05268025E5895403640208
:10098200700A052DE52D7017052C8013E589540397
:100992006403700B85288C0531E53170020530D077
:0209A200E03241
:03001B000209A433
:1009A400C0E0E589543064106006E5895430700A6B
:1009B40085298D852B8B05278025E5895430642076
:1009C400700A052FE52F7017052E8013E589543022
:1009D4006430700B852A8A0533E53370020532D002
:0209E400E032FF
:03002300020C9A32
:060C9A00C298752601322C
:100C2700758920758DFD758BFDD28EC29FD29EEF83
:070C370024FF929CD2AC22C5
:080003008F993099FDC299228A
:100C5300120383FF600C120003740129F9E43AFACA
:030C630080EE22FE
:0A0901008B348A3589368C378D3827
:10090B00E4FD7F031200037FFC120003EDC3953857
:10091B00E495375038AB34AA35A936EDC31375F0CF
:10092B0002A4F58285F083120427FF1200030DAB9E
:10093B0034AA35A936EDC31375F002A4F58285F000
:10094B0083120427E5F0FF1200030D80BF7FFC121A
:07095B0000037F030200030B
:100B5E007F08C296E4FED296AD071FED6010C2B6B6
:100B6E00EE25E0FEA297E4334206D2B680EAAF0647
:010B7E002254
:020A1900AD0727
:100A1B007B08C2B5AF031BEF6022C2B67E00740128
:100A2B00A803088005C333CE33CED8F9FFEDF5828A
:0E0A3B00EF558224FF92B400D2B680D8D2B517
:010A4900228A
:050CA000120CA5D2A119
:010CA500222C
:0A000E00D2A0120CA5D2A1020CA58D
:0A0C8600D2A0120CA0C2A0020CA51F
:0A0C9000C2A0120CA0D2A0020CA515
:0E0A7900120C86120ACB120A87AF05120ACBA6
:100A8700E4FFD2A1120CA530A00DEFC394FF748030
:0C0A9700948050030F80F0C2A1020CA557
:100ACB00E4FEEEC39408748094805011EF25E0FF90
:100ADB00C2A1120CA592A0120CA00E80E5C2A1120D
:070AEB000CA5D2A0020CA52E
:100A4A00E4FFC2A1120CA5D2A0120CA5FEEEC3941B
:100A5A0008748094805017D2A1120CA5EF25E0FFEC
:0E0A6A00A2A0E4334FFFC2A1120CA50E80DF44
:010A7800225B
:030C3E000D7FD057
:100C4100AE07AC03120A79AF04120ACB120A87026B
:020C51000C9005
:020C0F00AC0730
:100C1100120A79120C86EC4401FF120ACB120A87E0
:060C2100120A4A020C90C9
:1009E600E4FB7D6B7FD0120C410B7D197FD0120C7E
:1009F60041120C3E7B18120C3E7B100D7FD0120C60
:100A060041E4FB7D6A7FD0120C417B027D377FD0AB
:030A1600020C418E
:020BF500AB074C
:100BF700AD037FD0120C0FAA07EB04FD7FD0120CB8
:070C07000FAD07EAFEEDFF4F
:010C0E0022C3
:0100180022C5
:020B1800AA072A
:100B1A007B01E4FD7F52120C41AD027F52120C0F91
:100B2A00AB07EA04FD7F52120C0FAD07EBFEEDFF97
:010B3A002298
:100BA0007E08C2A7AD061EED6015EFC413131354E3
:0F0BB0000124FF92A5EF25E0FFD2A7C2A780E5A1
:010BBF002213
:100B7F00E4FFFE7D0CD2A7AC051DEC6013EF25E062
:100B8F00FFEE33FEA2A4E4334207C2A7D2A780E749
:010B9F002233
:0F0C7600E4FDFCC2A6C2A7120BA0120B7FD2A6F0
:010C8500224C
:1008270041542B5253540D0A0041542B43574D4FFB
:1008370044453D320D0A0041542B43575341503D27
:10084700226B616E675F3531222C223137333933A2
:10085700313630343139222C332C340D0A004154CF
:100867002B4349504D55583D310D0A0041542B43F8
:1008770049505345525645523D312C313233340D90
:100887000A0041542B43495053454E443D302C32C6
:030897000D0A0047
:10089A00E4F541EF6402705E7F01120C27D2AF7F4C
:1008AA00D07E07120AF27BFF7A087927120C537F4F
:1008BA00D07E07120AF27BFF7A087930120C537F36
:1008CA00D07E07120AF27BFF7A08793E120C537F18
:1008DA00D07E07120AF27BFF7A087965120C537FE1
:1008EA00D07E07120AF27BFF7A087973120C537FC3
:0608FA00D07E07120AF295
:0109000022D4
:0A0B3B008B088A09890A8C0B8D0CC7
:100B45007BFF7A087989120C537F147E00120AF212
:090B5500AB08AA09A90A020C531D
:100AA3007FE87E03120AF27589017F017E00120539
:100AB30072D2AF7FE4120C768E3B8F3C12046D7FB3
:080AC300327E00120AF280EB02
:1000260002036EE86480F8E933E83360110460F097
:10003600ED33EC337009E8FCE9FDEAFEEBFF220440
:1000460060DED3EB9FEA9EE99DE8C2E78CF0C2F73B
:1000560095F0400CE8CCF8E9CDF9EACEFAEBCFFB07
:1000660012033985D0F05804700320D5B3E8047024
:10007600075002B2D502037892D5EC0460F7E4CCBF
:10008600C0E0C398F8603B94186008400DD0E0FBD0
:10009600020350E4FBFAC9FC8028E830E406E4C910
:1000A600FBE4CAFCE830E305E4C9CACBFCE8540724
:1000B6006010F8C3E913F9EA13FAEB13FBEC13FC2F
:1000C600D8F130F52FC3E49CFCEF9BFFEE9AFEEDD2
:1000D60099FDD0E0FBEF4E4D4C701222DB0302037C
:1000E60075EC2CFCEF33FFEE33FEED33FDED30E720
:1000F600EB020350EF2BFFEE3AFEED39FDD0E0FBAD
:1001060050130BBB0003020378ED13FDEE13FEEF55
:0801160013FFEC13FC0203507F
:10011E00EC4D6011E8497017ED33EC3304600DE4DB
:10012E00FCFFFEFD22E933E8330470F802036E1281
:10013E00033958046009E4CC248150062850090282
:10014E000378284003020375C0E0EB4A7044B9807F
:10015E0006D0E0FB020364EF4E701CBD8008EBFF7F
:10016E00EAFEE9FD80EBE98DF0A4FEE5F002020760
:10017E00E9CDF9EAFEEBFFEF89F0A4FCE5F0CE89BC
:10018E00F0A42EFFE435F0CD89F0A42DFEE435F079
:10019E008067EF4E7005BD80D780C3EF8BF0A4ACA7
:1001AE00F0EE8BF0A42CFCE435F0F8EF8AF0A42CE2
:1001BE00E5F038FCE433CB8DF0A42CFCE5F03BF8F5
:1001CE00EE8AF0A42CFCE5F038F8E433CF89F0A4E5
:1001DE002CFCE5F038CF3400CE89F0A42FFFE5F0EB
:1001EE003EFEE433C98DF0A42EFEE5F039CD8AF043
:1001FE00A42FFFE5F03EFEE43DFD33D0E0FB5007BB
:10020E000BBB000F020378EC2CFCEF33FFEE33FE3A
:06021E00ED33FD02035068
:10022400020378EC5D046005E85904700302036E70
:10023400120339580460F6EC4860F2EC7004FDFED9
:10024400FF22C860DB2481C85009C39860025006AD
:100254000203759850CAF582E9294B4A7005AB82AE
:1002640002036475F0007C1A7880C3EF9BEE9AED6C
:1002740099400DC3EF9BFFEE9AFEED99FDE842F025
:10028400DC23ACF0D0E0FFD0E0FED0E0FDAB822078
:10029400E7101BEB60BAEC2CFCEF33FFEE33FEED02
:1002A40033FD020350E803F830E705C0F075F000B1
:1002B400EF2FFFEE33FEED33FD40B830E7C280AAE6
:1002C40075F020800E75F010800575F0087D007EB5
:1002D400007F003392D530D50312045FEC33401015
:1002E400EF33FFEE33FEED33FDEC33FCD5F0ED22BE
:0E02F400E5F0247EA2D513CC92E7CDCEFF22FA
:10030200EDD2E7CD33EC3392D524814006E4FFFEF3
:10031200FDFC22FCE4CFCECDCC24E0501174FF8052
:10032200EDC3CC13CCCD13CDCE13CECF13CF0470EF
:07033200F030D5DE02045F8C
:10033900E9D2E7C933E833F892D5EDD2E7CD33EC0A
:0703490033FC5002B2D52283
:10035000EC30E7100FBF000C0EBE00080DBD00040E
:100360000BEB6014A2D5EB13FCED92E7FD2274FFBA
:10037000FCFDFEFF22E480F8A2D574FF13FC7D8013
:03038000E480EF27
:0300000002079B59
:0C079B00787FE4F6D8FD7581410207E28A
:10038300BB010689828A83E0225002E722BBFE0278
:09039300E32289828A83E49322AB
:10039C00BC000BBE0029EF8DF084FFADF022E4CC45
:1003AC00F875F008EF2FFFEE33FEEC33FCEE9DEC0E
:1003BC00984005FCEE9DFE0FD5F0E9E4CEFD22ED54
:1003CC00F8F5F0EE8420D21CFEADF075F008EF2F9E
:1003DC00FFED33FD4007985006D5F0F222C398FD8F
:0503EC000FD5F0EA222C
:1003F100C2D5EC30E709B2D5E4C39DFDE49CFCEE27
:1004010030E715B2D5E4C39FFFE49EFE12039CC3FF
:10041100E49DFDE49CFC800312039C30D507C3E4FA
:060421009FFFE49EFE2295
:10042700BB0110E58229F582E5833AF583E0F5F013
:10043700A3E0225009E92582F886F008E622BBFEF0
:100447000AE92582F8E2F5F008E222E5832AF58336
:08045700E993F5F0A3E99322FB
:0E045F00C3E49FFFE49EFEE49DFDE49CFC22AE
:1007A700020AA3E493A3F8E493A34003F68001F2BB
:1007B70008DFF48029E493A3F85407240CC8C33353
:1007C700C4540F4420C8834004F456800146F6DF22
:1007D700E4800B0102040810204080900BDBE47ECC
:1007E700019360BCA3FF543F30E509541FFEE49317
:1007F700A360010ECF54C025E060A840B8E493A3DE
:10080700FAE493A3F8E493A3C8C582C8CAC583CA08
:10081700F0A3C8C582C8CAC583CADFE9DEE780BEC0
:010BF4000000
:00000001FF
