BL51 BANKED LINKER/LOCATER V6.22.2.0                                                    09/28/2019  12:42:49  PAGE 1


BL51 BANKED LINKER/LOCATER V6.22.2.0, INVOKED BY:
E:\K_KEIL\C51\BIN\BL51.EXE .\Objects\common.obj, .\Objects\button_led.obj, .\Objects\irq.obj, .\Objects\uart.obj, .\Obje
>> cts\iic.obj, .\Objects\spi.obj, .\Objects\wifi.obj, .\Objects\main.obj TO .\Objects\library_by_kang PRINT (.\Listings
>> \library_by_kang.m51) CODE (0X0000-0X0FFF)


MEMORY MODEL: SMALL WITH FLOATING POINT ARITHMETIC


INPUT MODULES INCLUDED:
  .\Objects\common.obj (COMMON)
  .\Objects\button_led.obj (BUTTON_LED)
  .\Objects\irq.obj (IRQ)
  .\Objects\uart.obj (UART)
  .\Objects\iic.obj (IIC)
  .\Objects\spi.obj (SPI)
  .\Objects\wifi.obj (WIFI)
  .\Objects\main.obj (MAIN)
  E:\K_KEIL\C51\LIB\C51FPS.LIB (?C?FPADD)
  E:\K_KEIL\C51\LIB\C51FPS.LIB (?C?FPMUL)
  E:\K_KEIL\C51\LIB\C51FPS.LIB (?C?FPDIV)
  E:\K_KEIL\C51\LIB\C51FPS.LIB (?C?FCAST)
  E:\K_KEIL\C51\LIB\C51FPS.LIB (?C?CASTF)
  E:\K_KEIL\C51\LIB\C51FPS.LIB (?C?FPGETOPN)
  E:\K_KEIL\C51\LIB\C51S.LIB (?C_STARTUP)
  E:\K_KEIL\C51\LIB\C51S.LIB (?C?CLDPTR)
  E:\K_KEIL\C51\LIB\C51S.LIB (?C?UIDIV)
  E:\K_KEIL\C51\LIB\C51S.LIB (?C?SIDIV)
  E:\K_KEIL\C51\LIB\C51S.LIB (?C?ILDOPTR)
  E:\K_KEIL\C51\LIB\C51S.LIB (?C?LNEG)
  E:\K_KEIL\C51\LIB\C51S.LIB (?C_INIT)


LINK MAP OF MODULE:  .\Objects\library_by_kang (COMMON)


            TYPE    BASE      LENGTH    RELOCATION   SEGMENT NAME
            -----------------------------------------------------

            * * * * * * *   D A T A   M E M O R Y   * * * * * * *
            REG     0000H     0008H     ABSOLUTE     "REG BANK 0"
            DATA    0008H     001EH     UNIT         ?DT?_WIFI_SEND?WIFI
            DATA    0026H     000EH     UNIT         ?DT?IRQ
            DATA    0034H     0005H     UNIT         ?DT?_UART_SENDWARE?UART
            DATA    0039H     0002H     UNIT         ?DT?_PIT1_INIT_MS?IRQ
            DATA    003BH     0002H     UNIT         ?DT?MAIN
            DATA    003DH     0002H     UNIT         _DATA_GROUP_
            DATA    003FH     0001H     UNIT         ?DT?BUTTON_MATRIX_SCANF?BUTTON_LED
            DATA    0040H     0001H     UNIT         ?DT?BUTTON_LED
            DATA    0041H     0001H     UNIT         ?DT?_WIFI_INIT?WIFI
            IDATA   0042H     0001H     UNIT         ?STACK

            * * * * * * *   C O D E   M E M O R Y   * * * * * * *
            CODE    0000H     0003H     ABSOLUTE     
            CODE    0003H     0008H     UNIT         ?PR?_UART_PUTCHAR?UART
            CODE    000BH     0003H     ABSOLUTE     
            CODE    000EH     000AH     UNIT         ?PR?IIC_INIT?IIC
            CODE    0018H     0001H     UNIT         ?PR?VL53L0_INIT?IIC
BL51 BANKED LINKER/LOCATER V6.22.2.0                                                  09/28/2019  12:42:49  PAGE 2


                    0019H     0002H                  *** GAP ***
            CODE    001BH     0003H     ABSOLUTE     
                    001EH     0005H                  *** GAP ***
            CODE    0023H     0003H     ABSOLUTE     
            CODE    0026H     0447H     UNIT         ?C?LIB_CODE
            CODE    046DH     0105H     UNIT         ?PR?_DISPLAY_LED?BUTTON_LED
            CODE    0572H     00DCH     UNIT         ?PR?_PIT0_INIT_MS?IRQ
            CODE    064EH     00BFH     UNIT         ?PR?_PIT1_INIT_MS?IRQ
            CODE    070DH     008EH     UNIT         ?PR?BUTTON_MATRIX_SCANF?BUTTON_LED
            CODE    079BH     008CH     UNIT         ?C_C51STARTUP
            CODE    0827H     0073H     UNIT         ?CO?WIFI
            CODE    089AH     0067H     UNIT         ?PR?_WIFI_INIT?WIFI
            CODE    0901H     0061H     UNIT         ?PR?_UART_SENDWARE?UART
            CODE    0962H     0042H     UNIT         ?PR?T0_TIME?IRQ
            CODE    09A4H     0042H     UNIT         ?PR?T1_TIME?IRQ
            CODE    09E6H     0033H     UNIT         ?PR?MPU6050_INIT?IIC
            CODE    0A19H     0031H     UNIT         ?PR?_HC595_OUT?UART
            CODE    0A4AH     002FH     UNIT         ?PR?IIC_R_BYTE?IIC
            CODE    0A79H     002AH     UNIT         ?PR?IIC_RESPONS?IIC
            CODE    0AA3H     0028H     UNIT         ?PR?MAIN?MAIN
            CODE    0ACBH     0027H     UNIT         ?PR?_IIC_W_BYTE?IIC
            CODE    0AF2H     0026H     UNIT         ?PR?_DELAY_FOR_MS?IRQ
            CODE    0B18H     0023H     UNIT         ?PR?_VL53L0_GETDATA?IIC
            CODE    0B3BH     0023H     UNIT         ?PR?_WIFI_SEND?WIFI
            CODE    0B5EH     0021H     UNIT         ?PR?HC_165_IN?UART
            CODE    0B7FH     0021H     UNIT         ?PR?SPI_READ?SPI
            CODE    0BA0H     0020H     UNIT         ?PR?_SPI_WRITE?SPI
            CODE    0BC0H     001BH     UNIT         ?PR?BUTTON_ONE_SCANF?BUTTON_LED
            CODE    0BDBH     001AH     UNIT         ?C_INITSEG
            CODE    0BF5H     001AH     UNIT         ?PR?_MPU6050_GETDATA?IIC
            CODE    0C0FH     0018H     UNIT         ?PR?_IIC_READ_ADD?IIC
            CODE    0C27H     0017H     UNIT         ?PR?_UART_INIT?UART
            CODE    0C3EH     0015H     UNIT         ?PR?_IIC_SENT_ADD?IIC
            CODE    0C53H     0013H     UNIT         ?PR?_UART_SENDBUFF?UART
            CODE    0C66H     0010H     UNIT         ?CO?COMMON
            CODE    0C76H     0010H     UNIT         ?PR?_READ_AD_DATA?SPI
            CODE    0C86H     000AH     UNIT         ?PR?IIC_START?IIC
            CODE    0C90H     000AH     UNIT         ?PR?IIC_END?IIC
            CODE    0C9AH     0006H     UNIT         ?PR?UART_IRQ?IRQ
            CODE    0CA0H     0006H     UNIT         ?PR?DELAY_IIC?IIC



OVERLAY MAP OF MODULE:   .\Objects\library_by_kang (COMMON)


SEGMENT                                      DATA_GROUP 
  +--> CALLED SEGMENT                      START    LENGTH
----------------------------------------------------------
?C_C51STARTUP                              -----    -----
  +--> ?PR?MAIN?MAIN
  +--> ?C_INITSEG

?PR?MAIN?MAIN                              -----    -----
  +--> ?PR?_DELAY_FOR_MS?IRQ
  +--> ?PR?_PIT0_INIT_MS?IRQ
  +--> ?PR?_READ_AD_DATA?SPI
BL51 BANKED LINKER/LOCATER V6.22.2.0                                                  09/28/2019  12:42:49  PAGE 3


  +--> ?PR?_DISPLAY_LED?BUTTON_LED

?PR?_PIT0_INIT_MS?IRQ                      003DH    0002H

?PR?_READ_AD_DATA?SPI                      -----    -----
  +--> ?PR?_SPI_WRITE?SPI
  +--> ?PR?SPI_READ?SPI

?PR?_DISPLAY_LED?BUTTON_LED                003DH    0002H
  +--> ?CO?COMMON
  +--> ?PR?_DELAY_FOR_MS?IRQ



SYMBOL TABLE OF MODULE:  .\Objects\library_by_kang (COMMON)

  VALUE           TYPE          NAME
  ----------------------------------

  -------         MODULE        COMMON
  C:0000H         SYMBOL        _ICE_DUMMY_
  D:0090H         PUBLIC        P1
  D:00B0H         PUBLIC        P3
  C:0C66H         PUBLIC        table
  D:00A8H         PUBLIC        IE
  D:00B8H         PUBLIC        IP
  D:0098H         PUBLIC        SCON
  D:0088H         PUBLIC        TCON
  D:00C8H         PUBLIC        T2CON
  D:00D0H         PUBLIC        PSW
  -------         ENDMOD        COMMON

  -------         MODULE        BUTTON_LED
  C:0000H         SYMBOL        _ICE_DUMMY_
  D:0080H         PUBLIC        P0
  D:0090H         PUBLIC        P1
  D:00B0H         PUBLIC        P3
  C:070DH         PUBLIC        button_matrix_scanf
  D:00A8H         PUBLIC        IE
  C:046DH         PUBLIC        _display_led
  D:00B8H         PUBLIC        IP
  C:0BC0H         PUBLIC        button_one_scanf
  D:0098H         PUBLIC        SCON
  D:0088H         PUBLIC        TCON
  B:0090H.7       PUBLIC        pa
  B:0090H.0       PUBLIC        p10
  B:0090H.6       PUBLIC        pb
  B:0090H.5       PUBLIC        pc
  D:0040H         PUBLIC        time_button_mat
  D:00C8H         PUBLIC        T2CON
  B:0090H.2       PUBLIC        P_key
  D:00D0H         PUBLIC        PSW
  -------         PROC          _DISPLAY_LED
  D:003DH         SYMBOL        num
  C:046DH         LINE#         14
  C:0471H         LINE#         15
  C:0471H         LINE#         17
BL51 BANKED LINKER/LOCATER V6.22.2.0                                                  09/28/2019  12:42:49  PAGE 4


  C:0473H         LINE#         18
  C:0488H         LINE#         19
  C:048AH         LINE#         20
  C:048CH         LINE#         21
  C:048EH         LINE#         22
  C:0490H         LINE#         23
  C:0497H         LINE#         24
  C:04A9H         LINE#         25
  C:04A9H         LINE#         27
  C:04ABH         LINE#         28
  C:04C0H         LINE#         29
  C:04C2H         LINE#         30
  C:04C4H         LINE#         31
  C:04C6H         LINE#         32
  C:04C8H         LINE#         33
  C:04CFH         LINE#         34
  C:04E1H         LINE#         35
  C:04E1H         LINE#         37
  C:04E3H         LINE#         38
  C:04F8H         LINE#         39
  C:04FAH         LINE#         40
  C:04FCH         LINE#         41
  C:04FEH         LINE#         42
  C:0500H         LINE#         43
  C:0507H         LINE#         44
  C:0516H         LINE#         45
  C:0516H         LINE#         47
  C:0518H         LINE#         48
  C:052DH         LINE#         49
  C:052FH         LINE#         50
  C:0531H         LINE#         51
  C:0533H         LINE#         52
  C:0535H         LINE#         53
  C:053CH         LINE#         54
  C:054BH         LINE#         55
  C:054BH         LINE#         57
  C:054DH         LINE#         58
  C:0562H         LINE#         59
  C:0564H         LINE#         60
  C:0566H         LINE#         61
  C:0568H         LINE#         62
  C:056AH         LINE#         63
  C:0571H         LINE#         64
  C:0571H         LINE#         65
  C:0571H         LINE#         66
  C:0571H         LINE#         67
  C:0571H         LINE#         68
  -------         ENDPROC       _DISPLAY_LED
  -------         PROC          BUTTON_ONE_SCANF
  C:0BC0H         LINE#         77
  C:0BC0H         LINE#         78
  C:0BC0H         LINE#         79
  C:0BC2H         LINE#         80
  C:0BC5H         LINE#         81
  C:0BC5H         LINE#         82
  C:0BCCH         LINE#         83
  C:0BCFH         LINE#         84
BL51 BANKED LINKER/LOCATER V6.22.2.0                                                  09/28/2019  12:42:49  PAGE 5


  C:0BCFH         LINE#         85
  C:0BD2H         LINE#         87
  C:0BD5H         LINE#         88
  C:0BD5H         LINE#         90
  C:0BD8H         LINE#         91
  C:0BD8H         LINE#         93
  C:0BDAH         LINE#         94
  -------         ENDPROC       BUTTON_ONE_SCANF
  -------         PROC          BUTTON_MATRIX_SCANF
  -------         DO            
  D:003FH         SYMBOL        key_num
  -------         ENDDO         
  C:070DH         LINE#         102
  C:070DH         LINE#         103
  C:070DH         LINE#         104
  C:0710H         LINE#         105
  C:0712H         LINE#         106
  C:0715H         LINE#         107
  C:071CH         LINE#         108
  C:071CH         LINE#         109
  C:0723H         LINE#         111
  C:072AH         LINE#         112
  C:072AH         LINE#         113
  C:073DH         LINE#         114
  C:073DH         LINE#         115
  C:073DH         LINE#         116
  C:0740H         LINE#         117
  C:0742H         LINE#         118
  C:0742H         LINE#         119
  C:0745H         LINE#         120
  C:0747H         LINE#         121
  C:0747H         LINE#         122
  C:074AH         LINE#         123
  C:074CH         LINE#         124
  C:074CH         LINE#         125
  C:074FH         LINE#         126
  C:074FH         LINE#         127
  C:074FH         LINE#         128
  C:074FH         LINE#         130
  C:0752H         LINE#         131
  C:0759H         LINE#         132
  C:0759H         LINE#         133
  C:0769H         LINE#         134
  C:0769H         LINE#         135
  C:0769H         LINE#         136
  C:0769H         LINE#         137
  C:076BH         LINE#         138
  C:076BH         LINE#         139
  C:076DH         LINE#         140
  C:076FH         LINE#         141
  C:076FH         LINE#         142
  C:0773H         LINE#         143
  C:0775H         LINE#         144
  C:0775H         LINE#         145
  C:077BH         LINE#         146
  C:077BH         LINE#         147
  C:077BH         LINE#         148
BL51 BANKED LINKER/LOCATER V6.22.2.0                                                  09/28/2019  12:42:49  PAGE 6


  C:077BH         LINE#         149
  C:078DH         LINE#         150
  C:078DH         LINE#         151
  C:0794H         LINE#         152
  C:0796H         LINE#         153
  C:0798H         LINE#         154
  C:0798H         LINE#         155
  C:079AH         LINE#         156
  -------         ENDPROC       BUTTON_MATRIX_SCANF
  -------         ENDMOD        BUTTON_LED

  -------         MODULE        IRQ
  C:0000H         SYMBOL        _ICE_DUMMY_
  D:0090H         PUBLIC        P1
  D:00B0H         PUBLIC        P3
  D:00A8H         PUBLIC        IE
  C:0962H         PUBLIC        T0_time
  C:09A4H         PUBLIC        T1_time
  D:00B8H         PUBLIC        IP
  B:0098H.0       PUBLIC        RI
  D:0026H         PUBLIC        flag_1
  D:0027H         PUBLIC        flag_2
  D:0028H         PUBLIC        th0_val
  D:0029H         PUBLIC        th1_val
  D:0098H         PUBLIC        SCON
  D:0089H         PUBLIC        TMOD
  D:0088H         PUBLIC        TCON
  D:002AH         PUBLIC        tl0_val
  D:002BH         PUBLIC        tl1_val
  D:002CH         PUBLIC        time2_T0
  D:002EH         PUBLIC        time2_T1
  D:0030H         PUBLIC        time3_T0
  B:00A8H.1       PUBLIC        ET0
  D:0032H         PUBLIC        time3_T1
  B:00A8H.3       PUBLIC        ET1
  D:008CH         PUBLIC        TH0
  D:008DH         PUBLIC        TH1
  D:008AH         PUBLIC        TL0
  D:008BH         PUBLIC        TL1
  B:0088H.4       PUBLIC        TR0
  C:0572H         PUBLIC        _pit0_init_ms
  B:0088H.6       PUBLIC        TR1
  C:064EH         PUBLIC        _pit1_init_ms
  D:00C8H         PUBLIC        T2CON
  C:0C9AH         PUBLIC        uart_irq
  D:00D0H         PUBLIC        PSW
  C:0AF2H         PUBLIC        _delay_for_ms
  -------         PROC          _DELAY_FOR_MS
  D:0006H         SYMBOL        ms
  -------         DO            
  D:0004H         SYMBOL        i
  D:0002H         SYMBOL        j
  -------         ENDDO         
  C:0AF2H         LINE#         8
  C:0AF2H         LINE#         9
  C:0AF2H         LINE#         12
  C:0B02H         LINE#         13
BL51 BANKED LINKER/LOCATER V6.22.2.0                                                  09/28/2019  12:42:49  PAGE 7


  C:0B17H         LINE#         15
  -------         ENDPROC       _DELAY_FOR_MS
  -------         PROC          _PIT0_INIT_MS
  D:003DH         SYMBOL        ms
  C:0572H         LINE#         29
  C:0576H         LINE#         30
  C:0576H         LINE#         31
  C:057CH         LINE#         32
  C:057CH         LINE#         33
  C:05BAH         LINE#         34
  C:05BEH         LINE#         35
  C:05BEH         LINE#         36
  C:05BEH         LINE#         37
  C:05BEH         LINE#         38
  C:05BEH         LINE#         39
  C:05C0H         LINE#         40
  C:05C8H         LINE#         41
  C:05C8H         LINE#         42
  C:0607H         LINE#         43
  C:0614H         LINE#         44
  C:0614H         LINE#         45
  C:0614H         LINE#         46
  C:0614H         LINE#         47
  C:0614H         LINE#         48
  C:0616H         LINE#         49
  C:061EH         LINE#         50
  C:061EH         LINE#         51
  C:0621H         LINE#         52
  C:0624H         LINE#         53
  C:0627H         LINE#         54
  C:062AH         LINE#         55
  C:062CH         LINE#         56
  C:062EH         LINE#         57
  C:062FH         LINE#         58
  C:0637H         LINE#         59
  C:0637H         LINE#         60
  C:063AH         LINE#         61
  C:063DH         LINE#         62
  C:0640H         LINE#         63
  C:0643H         LINE#         64
  C:0645H         LINE#         65
  C:0647H         LINE#         66
  C:0649H         LINE#         67
  C:064BH         LINE#         68
  C:064CH         LINE#         70
  -------         ENDPROC       _PIT0_INIT_MS
  -------         PROC          _PIT1_INIT_MS
  D:0039H         SYMBOL        ms
  C:064EH         LINE#         81
  C:0652H         LINE#         82
  C:0652H         LINE#         83
  C:0658H         LINE#         84
  C:0658H         LINE#         85
  C:0696H         LINE#         86
  C:069AH         LINE#         87
  C:069AH         LINE#         88
  C:069AH         LINE#         89
BL51 BANKED LINKER/LOCATER V6.22.2.0                                                  09/28/2019  12:42:49  PAGE 8


  C:069AH         LINE#         90
  C:069AH         LINE#         91
  C:069CH         LINE#         92
  C:06A4H         LINE#         93
  C:06A4H         LINE#         94
  C:06E3H         LINE#         95
  C:06F0H         LINE#         96
  C:06F0H         LINE#         97
  C:06F0H         LINE#         98
  C:06F0H         LINE#         99
  C:06F0H         LINE#         100
  C:06F2H         LINE#         101
  C:06FAH         LINE#         102
  C:06FAH         LINE#         103
  C:06FDH         LINE#         104
  C:0700H         LINE#         105
  C:0703H         LINE#         106
  C:0706H         LINE#         107
  C:0708H         LINE#         108
  C:070AH         LINE#         109
  C:070BH         LINE#         111
  -------         ENDPROC       _PIT1_INIT_MS
  -------         PROC          T0_TIME
  C:0962H         LINE#         120
  C:0964H         LINE#         122
  C:0972H         LINE#         123
  C:0972H         LINE#         124
  C:0975H         LINE#         125
  C:0978H         LINE#         127
  C:097AH         LINE#         128
  C:097CH         LINE#         129
  C:0984H         LINE#         130
  C:0984H         LINE#         131
  C:098CH         LINE#         132
  C:098EH         LINE#         133
  C:0996H         LINE#         134
  C:0996H         LINE#         135
  C:0999H         LINE#         136
  C:09A1H         LINE#         137
  C:09A1H         LINE#         138
  -------         ENDPROC       T0_TIME
  -------         PROC          T1_TIME
  C:09A4H         LINE#         139
  C:09A6H         LINE#         141
  C:09B4H         LINE#         142
  C:09B4H         LINE#         143
  C:09B7H         LINE#         144
  C:09BAH         LINE#         146
  C:09BCH         LINE#         147
  C:09BEH         LINE#         148
  C:09C6H         LINE#         149
  C:09C6H         LINE#         150
  C:09CEH         LINE#         151
  C:09D0H         LINE#         152
  C:09D8H         LINE#         153
  C:09D8H         LINE#         154
  C:09DBH         LINE#         155
BL51 BANKED LINKER/LOCATER V6.22.2.0                                                  09/28/2019  12:42:49  PAGE 9


  C:09E3H         LINE#         156
  C:09E3H         LINE#         157
  -------         ENDPROC       T1_TIME
  -------         PROC          UART_IRQ
  C:0C9AH         LINE#         162
  C:0C9AH         LINE#         164
  C:0C9CH         LINE#         165
  C:0C9FH         LINE#         166
  -------         ENDPROC       UART_IRQ
  -------         ENDMOD        IRQ

  -------         MODULE        UART
  C:0000H         SYMBOL        _ICE_DUMMY_
  B:00B0H.5       PUBLIC        display_595
  C:0B5EH         PUBLIC        hc_165_in
  D:0090H         PUBLIC        P1
  D:00B0H         PUBLIC        P3
  D:00A8H         PUBLIC        IE
  B:00A8H.4       PUBLIC        ES
  B:0090H.7       PUBLIC        data_165
  D:00B8H         PUBLIC        IP
  C:0003H         PUBLIC        _uart_putchar
  B:0098H.1       PUBLIC        TI
  B:00B0H.4       PUBLIC        data_595
  C:0A19H         PUBLIC        _hc595_out
  D:0099H         PUBLIC        SBUF
  D:0098H         PUBLIC        SCON
  D:0089H         PUBLIC        TMOD
  D:0088H         PUBLIC        TCON
  B:00B0H.6       PUBLIC        clk_165
  B:00B0H.6       PUBLIC        clk_595
  B:0090H.6       PUBLIC        s_l
  D:008DH         PUBLIC        TH1
  B:0098H.7       PUBLIC        SM0
  B:0098H.6       PUBLIC        SM1
  D:008BH         PUBLIC        TL1
  C:0C27H         PUBLIC        _uart_init
  B:0088H.6       PUBLIC        TR1
  B:0098H.4       PUBLIC        REN
  D:00C8H         PUBLIC        T2CON
  C:0C53H         PUBLIC        _uart_sendbuff
  D:00D0H         PUBLIC        PSW
  C:0901H         PUBLIC        _uart_sendware
  -------         PROC          _UART_INIT
  D:0007H         SYMBOL        r
  C:0C27H         LINE#         8
  C:0C27H         LINE#         9
  C:0C27H         LINE#         10
  C:0C2AH         LINE#         11
  C:0C2DH         LINE#         12
  C:0C30H         LINE#         13
  C:0C32H         LINE#         14
  C:0C34H         LINE#         15
  C:0C36H         LINE#         16
  C:0C3BH         LINE#         17
  C:0C3DH         LINE#         18
  -------         ENDPROC       _UART_INIT
BL51 BANKED LINKER/LOCATER V6.22.2.0                                                  09/28/2019  12:42:49  PAGE 10


  -------         PROC          _UART_PUTCHAR
  D:0007H         SYMBOL        data_sbuf
  C:0003H         LINE#         24
  C:0003H         LINE#         25
  C:0003H         LINE#         26
  C:0005H         LINE#         27
  C:0008H         LINE#         29
  C:000AH         LINE#         30
  -------         ENDPROC       _UART_PUTCHAR
  -------         PROC          _UART_SENDBUFF
  D:0001H         SYMBOL        buff
  C:0C53H         LINE#         36
  C:0C53H         LINE#         37
  C:0C53H         LINE#         38
  C:0C59H         LINE#         39
  C:0C59H         LINE#         40
  C:0C5CH         LINE#         41
  C:0C63H         LINE#         42
  C:0C65H         LINE#         43
  -------         ENDPROC       _UART_SENDBUFF
  -------         PROC          _UART_SENDWARE
  D:0034H         SYMBOL        data_computer
  D:0037H         SYMBOL        length
  -------         DO            
  D:0005H         SYMBOL        i
  -------         ENDDO         
  C:0901H         LINE#         50
  C:090BH         LINE#         51
  C:090BH         LINE#         52
  C:090DH         LINE#         53
  C:0912H         LINE#         54
  C:0917H         LINE#         56
  C:0920H         LINE#         57
  C:0920H         LINE#         58
  C:0939H         LINE#         59
  C:093AH         LINE#         60
  C:0955H         LINE#         61
  C:0958H         LINE#         63
  C:095DH         LINE#         64
  -------         ENDPROC       _UART_SENDWARE
  -------         PROC          HC_165_IN
  -------         DO            
  D:0007H         SYMBOL        i
  D:0006H         SYMBOL        data_temp
  -------         ENDDO         
  C:0B5EH         LINE#         74
  C:0B5EH         LINE#         75
  C:0B5EH         LINE#         76
  C:0B60H         LINE#         79
  C:0B62H         LINE#         80
  C:0B64H         LINE#         81
  C:0B66H         LINE#         83
  C:0B6CH         LINE#         84
  C:0B6CH         LINE#         85
  C:0B6EH         LINE#         86
  C:0B72H         LINE#         87
  C:0B78H         LINE#         88
BL51 BANKED LINKER/LOCATER V6.22.2.0                                                  09/28/2019  12:42:49  PAGE 11


  C:0B7AH         LINE#         89
  C:0B7CH         LINE#         91
  C:0B7EH         LINE#         92
  -------         ENDPROC       HC_165_IN
  -------         PROC          _HC595_OUT
  D:0005H         SYMBOL        data_temp
  -------         DO            
  D:0003H         SYMBOL        i
  -------         ENDDO         
  C:0A19H         LINE#         101
  C:0A1BH         LINE#         102
  C:0A1BH         LINE#         103
  C:0A1DH         LINE#         104
  C:0A1FH         LINE#         105
  C:0A25H         LINE#         106
  C:0A25H         LINE#         107
  C:0A27H         LINE#         108
  C:0A42H         LINE#         109
  C:0A43H         LINE#         110
  C:0A45H         LINE#         111
  C:0A47H         LINE#         112
  C:0A49H         LINE#         113
  -------         ENDPROC       _HC595_OUT
  -------         ENDMOD        UART

  -------         MODULE        IIC
  C:0000H         SYMBOL        _ICE_DUMMY_
  C:0018H         PUBLIC        vl53l0_init
  D:0090H         PUBLIC        P1
  D:00A0H         PUBLIC        P2
  D:00B0H         PUBLIC        P3
  D:00A8H         PUBLIC        IE
  D:00B8H         PUBLIC        IP
  B:00D0H.7       PUBLIC        CY
  C:0A4AH         PUBLIC        iic_r_byte
  C:0ACBH         PUBLIC        _iic_w_byte
  C:0A87H         PUBLIC        iic_respons
  C:0B18H         PUBLIC        _vl53l0_getdata
  C:0CA5H         PUBLIC        delay_iic
  D:0098H         PUBLIC        SCON
  D:0088H         PUBLIC        TCON
  C:09E6H         PUBLIC        mpu6050_init
  B:00A0H.0       PUBLIC        sda
  C:0C0FH         PUBLIC        _iic_read_add
  B:00A0H.1       PUBLIC        scl
  C:0C86H         PUBLIC        iic_start
  C:0C90H         PUBLIC        iic_end
  C:0C41H         PUBLIC        _iic_sent_add
  C:0BF5H         PUBLIC        _mpu6050_getdata
  D:00C8H         PUBLIC        T2CON
  C:000EH         PUBLIC        IIC_init
  D:00D0H         PUBLIC        PSW
  C:0CA0H         SYMBOL        L?0024
  -------         PROC          L?0023
  -------         ENDPROC       L?0023
  C:0CA0H         SYMBOL        L?0024
  -------         PROC          DELAY_IIC
BL51 BANKED LINKER/LOCATER V6.22.2.0                                                  09/28/2019  12:42:49  PAGE 12


  C:0CA5H         LINE#         6
  C:0CA5H         LINE#         7
  C:0CA5H         LINE#         10
  -------         ENDPROC       DELAY_IIC
  -------         PROC          IIC_INIT
  C:000EH         LINE#         17
  C:000EH         LINE#         18
  C:000EH         LINE#         19
  C:0010H         LINE#         20
  C:0013H         LINE#         21
  C:0015H         LINE#         22
  -------         ENDPROC       IIC_INIT
  -------         PROC          IIC_START
  C:0C86H         LINE#         28
  C:0C86H         LINE#         29
  C:0C86H         LINE#         30
  C:0C88H         LINE#         31
  C:0C88H         LINE#         32
  C:0C88H         LINE#         33
  C:0C8BH         LINE#         34
  C:0C8DH         LINE#         35
  -------         ENDPROC       IIC_START
  -------         PROC          IIC_END
  C:0C90H         LINE#         41
  C:0C90H         LINE#         42
  C:0C90H         LINE#         43
  C:0C92H         LINE#         44
  C:0C92H         LINE#         45
  C:0C92H         LINE#         46
  C:0C95H         LINE#         47
  C:0C97H         LINE#         48
  -------         ENDPROC       IIC_END
  -------         PROC          L?0022
  -------         ENDPROC       L?0022
  -------         PROC          IIC_RESPONS
  -------         DO            
  D:0007H         SYMBOL        i
  -------         ENDDO         
  C:0A87H         LINE#         54
  C:0A87H         LINE#         55
  C:0A87H         LINE#         56
  C:0A89H         LINE#         57
  C:0A8BH         LINE#         58
  C:0A8EH         LINE#         59
  C:0A9BH         LINE#         60
  C:0A9EH         LINE#         61
  C:0AA0H         LINE#         62
  -------         ENDPROC       IIC_RESPONS
  -------         PROC          _IIC_W_BYTE
  D:0007H         SYMBOL        data_
  -------         DO            
  D:0006H         SYMBOL        i
  D:0007H         SYMBOL        cy
  -------         ENDDO         
  C:0ACBH         LINE#         68
  C:0ACBH         LINE#         69
  C:0ACBH         LINE#         71
BL51 BANKED LINKER/LOCATER V6.22.2.0                                                  09/28/2019  12:42:49  PAGE 13


  C:0ACBH         LINE#         72
  C:0AD7H         LINE#         73
  C:0AD7H         LINE#         74
  C:0ADBH         LINE#         75
  C:0ADDH         LINE#         76
  C:0AE0H         LINE#         77
  C:0AE2H         LINE#         78
  C:0AE2H         LINE#         79
  C:0AE2H         LINE#         80
  C:0AE5H         LINE#         81
  C:0AE8H         LINE#         82
  C:0AEAH         LINE#         83
  C:0AEDH         LINE#         84
  C:0AEFH         LINE#         85
  -------         ENDPROC       _IIC_W_BYTE
  -------         PROC          IIC_R_BYTE
  -------         DO            
  D:0006H         SYMBOL        i
  D:0007H         SYMBOL        k
  -------         ENDDO         
  C:0A4AH         LINE#         91
  C:0A4AH         LINE#         92
  C:0A4AH         LINE#         93
  C:0A4CH         LINE#         94
  C:0A4EH         LINE#         95
  C:0A51H         LINE#         96
  C:0A53H         LINE#         97
  C:0A56H         LINE#         98
  C:0A61H         LINE#         99
  C:0A61H         LINE#         100
  C:0A63H         LINE#         101
  C:0A66H         LINE#         102
  C:0A70H         LINE#         103
  C:0A72H         LINE#         104
  C:0A75H         LINE#         105
  C:0A78H         LINE#         106
  C:0A78H         LINE#         107
  -------         ENDPROC       IIC_R_BYTE
  -------         PROC          L?0025
  -------         ENDPROC       L?0025
  -------         PROC          _IIC_SENT_ADD
  D:0006H         SYMBOL        dev_add
  D:0005H         SYMBOL        reg
  D:0004H         SYMBOL        data_
  C:0C41H         LINE#         112
  C:0C45H         LINE#         113
  C:0C45H         LINE#         114
  C:0C45H         LINE#         115
  C:0C45H         LINE#         116
  C:0C45H         LINE#         117
  C:0C45H         LINE#         118
  C:0C48H         LINE#         119
  C:0C4DH         LINE#         120
  C:0C50H         LINE#         121
  -------         ENDPROC       _IIC_SENT_ADD
  -------         PROC          _IIC_READ_ADD
  D:0004H         SYMBOL        dev_add
BL51 BANKED LINKER/LOCATER V6.22.2.0                                                  09/28/2019  12:42:49  PAGE 14


  D:0005H         SYMBOL        reg
  -------         DO            
  D:0007H         SYMBOL        data_
  -------         ENDDO         
  C:0C0FH         LINE#         127
  C:0C11H         LINE#         128
  C:0C11H         LINE#         130
  C:0C11H         LINE#         131
  C:0C11H         LINE#         132
  C:0C11H         LINE#         133
  C:0C11H         LINE#         134
  C:0C14H         LINE#         136
  C:0C17H         LINE#         137
  C:0C1EH         LINE#         138
  C:0C21H         LINE#         139
  C:0C24H         LINE#         140
  -------         ENDPROC       _IIC_READ_ADD
  -------         PROC          MPU6050_INIT
  C:09E6H         LINE#         148
  C:09E6H         LINE#         149
  C:09E6H         LINE#         150
  C:09EFH         LINE#         151
  C:09F7H         LINE#         152
  C:09FAH         LINE#         153
  C:09FFH         LINE#         154
  C:0A07H         LINE#         155
  C:0A10H         LINE#         156
  -------         ENDPROC       MPU6050_INIT
  -------         PROC          _MPU6050_GETDATA
  D:0003H         SYMBOL        reg
  -------         DO            
  D:0002H         SYMBOL        h
  D:0005H         SYMBOL        l
  -------         ENDDO         
  C:0BF5H         LINE#         163
  C:0BF7H         LINE#         164
  C:0BF7H         LINE#         166
  C:0C00H         LINE#         167
  C:0C0AH         LINE#         168
  C:0C0EH         LINE#         169
  -------         ENDPROC       _MPU6050_GETDATA
  -------         PROC          VL53L0_INIT
  C:0018H         LINE#         175
  C:0018H         LINE#         176
  C:0018H         LINE#         177
  -------         ENDPROC       VL53L0_INIT
  -------         PROC          _VL53L0_GETDATA
  D:0002H         SYMBOL        reg
  -------         DO            
  D:0003H         SYMBOL        h
  D:0005H         SYMBOL        l
  D:0006H         SYMBOL        data_vl53
  -------         ENDDO         
  C:0B18H         LINE#         183
  C:0B1AH         LINE#         184
  C:0B1AH         LINE#         188
  C:0B23H         LINE#         190
BL51 BANKED LINKER/LOCATER V6.22.2.0                                                  09/28/2019  12:42:49  PAGE 15


  C:0B2CH         LINE#         191
  C:0B36H         LINE#         192
  C:0B3AH         LINE#         193
  C:0B3AH         LINE#         194
  -------         ENDPROC       _VL53L0_GETDATA
  -------         ENDMOD        IIC

  -------         MODULE        SPI
  C:0000H         SYMBOL        _ICE_DUMMY_
  D:0090H         PUBLIC        P1
  D:00A0H         PUBLIC        P2
  D:00B0H         PUBLIC        P3
  D:00A8H         PUBLIC        IE
  D:00B8H         PUBLIC        IP
  D:0098H         PUBLIC        SCON
  D:0088H         PUBLIC        TCON
  B:00A0H.7       PUBLIC        clk
  B:00A0H.5       PUBLIC        din
  B:00A0H.4       PUBLIC        dout
  C:0C76H         PUBLIC        _read_ad_data
  C:0B7FH         PUBLIC        spi_read
  B:00A0H.6       PUBLIC        cs
  C:0BA0H         PUBLIC        _spi_write
  D:00C8H         PUBLIC        T2CON
  D:00D0H         PUBLIC        PSW
  -------         PROC          _SPI_WRITE
  D:0007H         SYMBOL        data_spi
  -------         DO            
  D:0006H         SYMBOL        i
  -------         ENDDO         
  C:0BA0H         LINE#         10
  C:0BA0H         LINE#         11
  C:0BA0H         LINE#         12
  C:0BA2H         LINE#         13
  C:0BA4H         LINE#         14
  C:0BAAH         LINE#         15
  C:0BAAH         LINE#         16
  C:0BB5H         LINE#         17
  C:0BB9H         LINE#         18
  C:0BBBH         LINE#         19
  C:0BBDH         LINE#         20
  C:0BBFH         LINE#         21
  -------         ENDPROC       _SPI_WRITE
  -------         PROC          SPI_READ
  -------         DO            
  D:0005H         SYMBOL        wei
  D:0006H         SYMBOL        data_read
  -------         ENDDO         
  C:0B7FH         LINE#         26
  C:0B7FH         LINE#         27
  C:0B7FH         LINE#         29
  C:0B82H         LINE#         30
  C:0B84H         LINE#         31
  C:0B86H         LINE#         32
  C:0B8CH         LINE#         33
  C:0B8CH         LINE#         34
  C:0B93H         LINE#         35
BL51 BANKED LINKER/LOCATER V6.22.2.0                                                  09/28/2019  12:42:49  PAGE 16


  C:0B99H         LINE#         36
  C:0B9BH         LINE#         37
  C:0B9DH         LINE#         38
  C:0B9FH         LINE#         39
  C:0B9FH         LINE#         40
  -------         ENDPROC       SPI_READ
  -------         PROC          _READ_AD_DATA
  D:0007H         SYMBOL        cmd
  -------         DO            
  D:0004H         SYMBOL        data_ad
  -------         ENDDO         
  C:0C76H         LINE#         45
  C:0C76H         LINE#         46
  C:0C76H         LINE#         48
  C:0C79H         LINE#         49
  C:0C7BH         LINE#         50
  C:0C7DH         LINE#         51
  C:0C80H         LINE#         52
  C:0C83H         LINE#         53
  C:0C85H         LINE#         54
  C:0C85H         LINE#         55
  -------         ENDPROC       _READ_AD_DATA
  -------         ENDMOD        SPI

  -------         MODULE        WIFI
  C:0000H         SYMBOL        _ICE_DUMMY_
  D:0090H         PUBLIC        P1
  D:00B0H         PUBLIC        P3
  B:00A8H.7       PUBLIC        EA
  D:00A8H         PUBLIC        IE
  D:00B8H         PUBLIC        IP
  D:0098H         PUBLIC        SCON
  D:0088H         PUBLIC        TCON
  C:0B3BH         PUBLIC        _wifi_send
  C:089AH         PUBLIC        _wifi_init
  D:00C8H         PUBLIC        T2CON
  D:00D0H         PUBLIC        PSW
  -------         PROC          _WIFI_INIT
  D:0007H         SYMBOL        cwmode
  -------         DO            
  D:0041H         SYMBOL        wifi_ok
  -------         ENDDO         
  C:089AH         LINE#         6
  C:089AH         LINE#         7
  C:089AH         LINE#         8
  C:089DH         LINE#         9
  C:08A2H         LINE#         10
  C:08A2H         LINE#         11
  C:08A7H         LINE#         12
  C:08A9H         LINE#         14
  C:08B0H         LINE#         15
  C:08B9H         LINE#         16
  C:08C0H         LINE#         18
  C:08C9H         LINE#         19
  C:08D0H         LINE#         21
  C:08D9H         LINE#         22
  C:08E0H         LINE#         24
BL51 BANKED LINKER/LOCATER V6.22.2.0                                                  09/28/2019  12:42:49  PAGE 17


  C:08E9H         LINE#         25
  C:08F0H         LINE#         27
  C:08F9H         LINE#         28
  C:0900H         LINE#         29
  C:0900H         LINE#         30
  -------         ENDPROC       _WIFI_INIT
  -------         PROC          _WIFI_SEND
  D:0008H         SYMBOL        wifidata
  D:000BH         SYMBOL        length
  -------         DO            
  D:000DH         SYMBOL        data_temp
  -------         ENDDO         
  C:0B3BH         LINE#         35
  C:0B45H         LINE#         36
  C:0B45H         LINE#         40
  C:0B4EH         LINE#         41
  C:0B55H         LINE#         42
  -------         ENDPROC       _WIFI_SEND
  -------         ENDMOD        WIFI

  -------         MODULE        MAIN
  C:0000H         SYMBOL        _ICE_DUMMY_
  D:0090H         PUBLIC        P1
  D:00B0H         PUBLIC        P3
  B:00A8H.7       PUBLIC        EA
  D:00A8H         PUBLIC        IE
  D:00B8H         PUBLIC        IP
  C:0AA3H         PUBLIC        main
  D:0098H         PUBLIC        SCON
  D:0089H         PUBLIC        TMOD
  D:0088H         PUBLIC        TCON
  D:003BH         PUBLIC        adc_da
  D:00C8H         PUBLIC        T2CON
  D:00D0H         PUBLIC        PSW
  -------         PROC          MAIN
  C:0AA3H         LINE#         4
  C:0AA3H         LINE#         5
  C:0AA3H         LINE#         6
  C:0AAAH         LINE#         7
  C:0AADH         LINE#         8
  C:0AB4H         LINE#         9
  C:0AB6H         LINE#         11
  C:0AB6H         LINE#         12
  C:0AB6H         LINE#         13
  C:0ABFH         LINE#         14
  C:0AC2H         LINE#         15
  C:0AC9H         LINE#         16
  -------         ENDPROC       MAIN
  -------         ENDMOD        MAIN

  -------         MODULE        ?C?FPADD
  C:002DH         PUBLIC        ?C?FPADD
  C:0029H         PUBLIC        ?C?FPSUB
  -------         ENDMOD        ?C?FPADD

  -------         MODULE        ?C?FPMUL
  C:011EH         PUBLIC        ?C?FPMUL
BL51 BANKED LINKER/LOCATER V6.22.2.0                                                  09/28/2019  12:42:49  PAGE 18


  -------         ENDMOD        ?C?FPMUL

  -------         MODULE        ?C?FPDIV
  C:0227H         PUBLIC        ?C?FPDIV
  -------         ENDMOD        ?C?FPDIV

  -------         MODULE        ?C?FCAST
  C:02CEH         PUBLIC        ?C?FCASTC
  C:02C9H         PUBLIC        ?C?FCASTI
  C:02C4H         PUBLIC        ?C?FCASTL
  -------         ENDMOD        ?C?FCAST

  -------         MODULE        ?C?CASTF
  C:0302H         PUBLIC        ?C?CASTF
  -------         ENDMOD        ?C?CASTF

  -------         MODULE        ?C?CLDPTR
  C:0383H         PUBLIC        ?C?CLDPTR
  -------         ENDMOD        ?C?CLDPTR

  -------         MODULE        ?C?UIDIV
  C:039CH         PUBLIC        ?C?UIDIV
  -------         ENDMOD        ?C?UIDIV

  -------         MODULE        ?C?SIDIV
  C:03F1H         PUBLIC        ?C?SIDIV
  -------         ENDMOD        ?C?SIDIV

  -------         MODULE        ?C?ILDOPTR
  C:0427H         PUBLIC        ?C?ILDOPTR
  -------         ENDMOD        ?C?ILDOPTR

  -------         MODULE        ?C?LNEG
  C:045FH         PUBLIC        ?C?LNEG
  -------         ENDMOD        ?C?LNEG

*** WARNING L16: UNCALLED SEGMENT, IGNORED FOR OVERLAY PROCESS
    SEGMENT: ?PR?BUTTON_ONE_SCANF?BUTTON_LED

*** WARNING L16: UNCALLED SEGMENT, IGNORED FOR OVERLAY PROCESS
    SEGMENT: ?PR?BUTTON_MATRIX_SCANF?BUTTON_LED

*** WARNING L16: UNCALLED SEGMENT, IGNORED FOR OVERLAY PROCESS
    SEGMENT: ?PR?_PIT1_INIT_MS?IRQ

*** WARNING L16: UNCALLED SEGMENT, IGNORED FOR OVERLAY PROCESS
    SEGMENT: ?PR?_UART_SENDWARE?UART

*** WARNING L16: UNCALLED SEGMENT, IGNORED FOR OVERLAY PROCESS
    SEGMENT: ?PR?HC_165_IN?UART

*** WARNING L16: UNCALLED SEGMENT, IGNORED FOR OVERLAY PROCESS
    SEGMENT: ?PR?_HC595_OUT?UART

*** WARNING L16: UNCALLED SEGMENT, IGNORED FOR OVERLAY PROCESS
    SEGMENT: ?PR?IIC_INIT?IIC

BL51 BANKED LINKER/LOCATER V6.22.2.0                                                  09/28/2019  12:42:49  PAGE 19


*** WARNING L16: UNCALLED SEGMENT, IGNORED FOR OVERLAY PROCESS
    SEGMENT: ?PR?MPU6050_INIT?IIC

*** WARNING L16: UNCALLED SEGMENT, IGNORED FOR OVERLAY PROCESS
    SEGMENT: ?PR?_MPU6050_GETDATA?IIC

*** WARNING L16: UNCALLED SEGMENT, IGNORED FOR OVERLAY PROCESS
    SEGMENT: ?PR?VL53L0_INIT?IIC

*** WARNING L16: UNCALLED SEGMENT, IGNORED FOR OVERLAY PROCESS
    SEGMENT: ?PR?_VL53L0_GETDATA?IIC

*** WARNING L16: UNCALLED SEGMENT, IGNORED FOR OVERLAY PROCESS
    SEGMENT: ?PR?_WIFI_INIT?WIFI

*** WARNING L16: UNCALLED SEGMENT, IGNORED FOR OVERLAY PROCESS
    SEGMENT: ?PR?_WIFI_SEND?WIFI

Program Size: data=67.0 xdata=0 code=3231
LINK/LOCATE RUN COMPLETE.  13 WARNING(S),  0 ERROR(S)
